{
  "address": "0x4f7d1f0A1d9E2c7FBEDE7deF887f0922077eC83c",
  "abi": [
    {
      "inputs": [
        {
          "internalType": "address",
          "name": "_want",
          "type": "address"
        },
        {
          "internalType": "address",
          "name": "_chef",
          "type": "address"
        },
        {
          "components": [
            {
              "internalType": "address",
              "name": "keeper",
              "type": "address"
            },
            {
              "internalType": "address",
              "name": "strategist",
              "type": "address"
            },
            {
              "internalType": "address",
              "name": "unirouter",
              "type": "address"
            },
            {
              "internalType": "address",
              "name": "vault",
              "type": "address"
            },
            {
              "internalType": "address",
              "name": "harvester",
              "type": "address"
            },
            {
              "internalType": "address",
              "name": "autocompFeeRecipient",
              "type": "address"
            }
          ],
          "internalType": "struct StratManager.StratMgr",
          "name": "stratMgr",
          "type": "tuple"
        },
        {
          "internalType": "address[]",
          "name": "_outputToNativeRoute",
          "type": "address[]"
        },
        {
          "internalType": "address[]",
          "name": "_outputToLp0Route",
          "type": "address[]"
        },
        {
          "internalType": "address[]",
          "name": "_outputToLp1Route",
          "type": "address[]"
        },
        {
          "internalType": "address[]",
          "name": "_output2ToOutputRoute",
          "type": "address[]"
        }
      ],
      "stateMutability": "nonpayable",
      "type": "constructor"
    },
    {
      "anonymous": false,
      "inputs": [
        {
          "indexed": true,
          "internalType": "address",
          "name": "previousOwner",
          "type": "address"
        },
        {
          "indexed": true,
          "internalType": "address",
          "name": "newOwner",
          "type": "address"
        }
      ],
      "name": "OwnershipTransferred",
      "type": "event"
    },
    {
      "anonymous": false,
      "inputs": [
        {
          "indexed": false,
          "internalType": "address",
          "name": "account",
          "type": "address"
        }
      ],
      "name": "Paused",
      "type": "event"
    },
    {
      "anonymous": false,
      "inputs": [
        {
          "indexed": true,
          "internalType": "address",
          "name": "harvester",
          "type": "address"
        }
      ],
      "name": "StratHarvest",
      "type": "event"
    },
    {
      "anonymous": false,
      "inputs": [
        {
          "indexed": false,
          "internalType": "address",
          "name": "account",
          "type": "address"
        }
      ],
      "name": "Unpaused",
      "type": "event"
    },
    {
      "anonymous": false,
      "inputs": [
        {
          "indexed": false,
          "internalType": "uint256",
          "name": "amountOut",
          "type": "uint256"
        },
        {
          "indexed": false,
          "internalType": "uint256",
          "name": "amountInMax",
          "type": "uint256"
        },
        {
          "indexed": false,
          "internalType": "address[]",
          "name": "path",
          "type": "address[]"
        },
        {
          "indexed": false,
          "internalType": "address",
          "name": "to",
          "type": "address"
        },
        {
          "indexed": false,
          "internalType": "uint256",
          "name": "deadline",
          "type": "uint256"
        }
      ],
      "name": "_SafeSwap",
      "type": "event"
    },
    {
      "inputs": [],
      "name": "MAX_CALL_FEE",
      "outputs": [
        {
          "internalType": "uint256",
          "name": "",
          "type": "uint256"
        }
      ],
      "stateMutability": "view",
      "type": "function"
    },
    {
      "inputs": [],
      "name": "MAX_FEE",
      "outputs": [
        {
          "internalType": "uint256",
          "name": "",
          "type": "uint256"
        }
      ],
      "stateMutability": "view",
      "type": "function"
    },
    {
      "inputs": [],
      "name": "STRATEGIST_FEE",
      "outputs": [
        {
          "internalType": "uint256",
          "name": "",
          "type": "uint256"
        }
      ],
      "stateMutability": "view",
      "type": "function"
    },
    {
      "inputs": [],
      "name": "WITHDRAWAL_FEE_CAP",
      "outputs": [
        {
          "internalType": "uint256",
          "name": "",
          "type": "uint256"
        }
      ],
      "stateMutability": "view",
      "type": "function"
    },
    {
      "inputs": [],
      "name": "WITHDRAWAL_MAX",
      "outputs": [
        {
          "internalType": "uint256",
          "name": "",
          "type": "uint256"
        }
      ],
      "stateMutability": "view",
      "type": "function"
    },
    {
      "inputs": [],
      "name": "autocompFee",
      "outputs": [
        {
          "internalType": "uint256",
          "name": "",
          "type": "uint256"
        }
      ],
      "stateMutability": "view",
      "type": "function"
    },
    {
      "inputs": [],
      "name": "autocompFeeRecipient",
      "outputs": [
        {
          "internalType": "address",
          "name": "",
          "type": "address"
        }
      ],
      "stateMutability": "view",
      "type": "function"
    },
    {
      "inputs": [],
      "name": "balanceOf",
      "outputs": [
        {
          "internalType": "uint256",
          "name": "",
          "type": "uint256"
        }
      ],
      "stateMutability": "view",
      "type": "function"
    },
    {
      "inputs": [],
      "name": "balanceOfPool",
      "outputs": [
        {
          "internalType": "uint256",
          "name": "",
          "type": "uint256"
        }
      ],
      "stateMutability": "view",
      "type": "function"
    },
    {
      "inputs": [],
      "name": "balanceOfWant",
      "outputs": [
        {
          "internalType": "uint256",
          "name": "",
          "type": "uint256"
        }
      ],
      "stateMutability": "view",
      "type": "function"
    },
    {
      "inputs": [],
      "name": "beforeDeposit",
      "outputs": [],
      "stateMutability": "nonpayable",
      "type": "function"
    },
    {
      "inputs": [],
      "name": "callFee",
      "outputs": [
        {
          "internalType": "uint256",
          "name": "",
          "type": "uint256"
        }
      ],
      "stateMutability": "view",
      "type": "function"
    },
    {
      "inputs": [],
      "name": "chef",
      "outputs": [
        {
          "internalType": "address",
          "name": "",
          "type": "address"
        }
      ],
      "stateMutability": "view",
      "type": "function"
    },
    {
      "inputs": [],
      "name": "deposit",
      "outputs": [],
      "stateMutability": "nonpayable",
      "type": "function"
    },
    {
      "inputs": [],
      "name": "harvest",
      "outputs": [],
      "stateMutability": "nonpayable",
      "type": "function"
    },
    {
      "inputs": [],
      "name": "harvestOnDeposit",
      "outputs": [
        {
          "internalType": "bool",
          "name": "",
          "type": "bool"
        }
      ],
      "stateMutability": "view",
      "type": "function"
    },
    {
      "inputs": [
        {
          "internalType": "address",
          "name": "callFeeRecipient",
          "type": "address"
        }
      ],
      "name": "harvestWithCallFeeRecipient",
      "outputs": [],
      "stateMutability": "nonpayable",
      "type": "function"
    },
    {
      "inputs": [],
      "name": "harvester",
      "outputs": [
        {
          "internalType": "address",
          "name": "",
          "type": "address"
        }
      ],
      "stateMutability": "view",
      "type": "function"
    },
    {
      "inputs": [],
      "name": "keeper",
      "outputs": [
        {
          "internalType": "address",
          "name": "",
          "type": "address"
        }
      ],
      "stateMutability": "view",
      "type": "function"
    },
    {
      "inputs": [],
      "name": "lastHarvest",
      "outputs": [
        {
          "internalType": "uint256",
          "name": "",
          "type": "uint256"
        }
      ],
      "stateMutability": "view",
      "type": "function"
    },
    {
      "inputs": [],
      "name": "lpToken0",
      "outputs": [
        {
          "internalType": "address",
          "name": "",
          "type": "address"
        }
      ],
      "stateMutability": "view",
      "type": "function"
    },
    {
      "inputs": [],
      "name": "lpToken1",
      "outputs": [
        {
          "internalType": "address",
          "name": "",
          "type": "address"
        }
      ],
      "stateMutability": "view",
      "type": "function"
    },
    {
      "inputs": [],
      "name": "managerHarvest",
      "outputs": [],
      "stateMutability": "nonpayable",
      "type": "function"
    },
    {
      "inputs": [],
      "name": "native",
      "outputs": [
        {
          "internalType": "address",
          "name": "",
          "type": "address"
        }
      ],
      "stateMutability": "view",
      "type": "function"
    },
    {
      "inputs": [],
      "name": "output",
      "outputs": [
        {
          "internalType": "address",
          "name": "",
          "type": "address"
        }
      ],
      "stateMutability": "view",
      "type": "function"
    },
    {
      "inputs": [],
      "name": "output2",
      "outputs": [
        {
          "internalType": "address",
          "name": "",
          "type": "address"
        }
      ],
      "stateMutability": "view",
      "type": "function"
    },
    {
      "inputs": [
        {
          "internalType": "uint256",
          "name": "",
          "type": "uint256"
        }
      ],
      "name": "output2ToOutputRoute",
      "outputs": [
        {
          "internalType": "address",
          "name": "",
          "type": "address"
        }
      ],
      "stateMutability": "view",
      "type": "function"
    },
    {
      "inputs": [
        {
          "internalType": "uint256",
          "name": "",
          "type": "uint256"
        }
      ],
      "name": "outputToLp0Route",
      "outputs": [
        {
          "internalType": "address",
          "name": "",
          "type": "address"
        }
      ],
      "stateMutability": "view",
      "type": "function"
    },
    {
      "inputs": [
        {
          "internalType": "uint256",
          "name": "",
          "type": "uint256"
        }
      ],
      "name": "outputToLp1Route",
      "outputs": [
        {
          "internalType": "address",
          "name": "",
          "type": "address"
        }
      ],
      "stateMutability": "view",
      "type": "function"
    },
    {
      "inputs": [
        {
          "internalType": "uint256",
          "name": "",
          "type": "uint256"
        }
      ],
      "name": "outputToNativeRoute",
      "outputs": [
        {
          "internalType": "address",
          "name": "",
          "type": "address"
        }
      ],
      "stateMutability": "view",
      "type": "function"
    },
    {
      "inputs": [],
      "name": "owner",
      "outputs": [
        {
          "internalType": "address",
          "name": "",
          "type": "address"
        }
      ],
      "stateMutability": "view",
      "type": "function"
    },
    {
      "inputs": [],
      "name": "panic",
      "outputs": [],
      "stateMutability": "nonpayable",
      "type": "function"
    },
    {
      "inputs": [],
      "name": "pause",
      "outputs": [],
      "stateMutability": "nonpayable",
      "type": "function"
    },
    {
      "inputs": [],
      "name": "paused",
      "outputs": [
        {
          "internalType": "bool",
          "name": "",
          "type": "bool"
        }
      ],
      "stateMutability": "view",
      "type": "function"
    },
    {
      "inputs": [],
      "name": "renounceOwnership",
      "outputs": [],
      "stateMutability": "nonpayable",
      "type": "function"
    },
    {
      "inputs": [],
      "name": "retireStrat",
      "outputs": [],
      "stateMutability": "nonpayable",
      "type": "function"
    },
    {
      "inputs": [
        {
          "internalType": "address",
          "name": "_autocompFeeRecipient",
          "type": "address"
        }
      ],
      "name": "setAutocompFeeRecipient",
      "outputs": [],
      "stateMutability": "nonpayable",
      "type": "function"
    },
    {
      "inputs": [
        {
          "internalType": "uint256",
          "name": "_fee",
          "type": "uint256"
        }
      ],
      "name": "setCallFee",
      "outputs": [],
      "stateMutability": "nonpayable",
      "type": "function"
    },
    {
      "inputs": [
        {
          "internalType": "bool",
          "name": "_harvestOnDeposit",
          "type": "bool"
        }
      ],
      "name": "setHarvestOnDeposit",
      "outputs": [],
      "stateMutability": "nonpayable",
      "type": "function"
    },
    {
      "inputs": [
        {
          "internalType": "address",
          "name": "_harvester",
          "type": "address"
        }
      ],
      "name": "setHarvester",
      "outputs": [],
      "stateMutability": "nonpayable",
      "type": "function"
    },
    {
      "inputs": [
        {
          "internalType": "address",
          "name": "_keeper",
          "type": "address"
        }
      ],
      "name": "setKeeper",
      "outputs": [],
      "stateMutability": "nonpayable",
      "type": "function"
    },
    {
      "inputs": [
        {
          "internalType": "address",
          "name": "_strategist",
          "type": "address"
        }
      ],
      "name": "setStrategist",
      "outputs": [],
      "stateMutability": "nonpayable",
      "type": "function"
    },
    {
      "inputs": [
        {
          "internalType": "address",
          "name": "_unirouter",
          "type": "address"
        }
      ],
      "name": "setUnirouter",
      "outputs": [],
      "stateMutability": "nonpayable",
      "type": "function"
    },
    {
      "inputs": [
        {
          "internalType": "address",
          "name": "_vault",
          "type": "address"
        }
      ],
      "name": "setVault",
      "outputs": [],
      "stateMutability": "nonpayable",
      "type": "function"
    },
    {
      "inputs": [
        {
          "internalType": "uint256",
          "name": "_fee",
          "type": "uint256"
        }
      ],
      "name": "setWithdrawalFee",
      "outputs": [],
      "stateMutability": "nonpayable",
      "type": "function"
    },
    {
      "inputs": [],
      "name": "strategist",
      "outputs": [
        {
          "internalType": "address",
          "name": "",
          "type": "address"
        }
      ],
      "stateMutability": "view",
      "type": "function"
    },
    {
      "inputs": [
        {
          "internalType": "address",
          "name": "newOwner",
          "type": "address"
        }
      ],
      "name": "transferOwnership",
      "outputs": [],
      "stateMutability": "nonpayable",
      "type": "function"
    },
    {
      "inputs": [],
      "name": "unirouter",
      "outputs": [
        {
          "internalType": "address",
          "name": "",
          "type": "address"
        }
      ],
      "stateMutability": "view",
      "type": "function"
    },
    {
      "inputs": [],
      "name": "unpause",
      "outputs": [],
      "stateMutability": "nonpayable",
      "type": "function"
    },
    {
      "inputs": [],
      "name": "vault",
      "outputs": [
        {
          "internalType": "address",
          "name": "",
          "type": "address"
        }
      ],
      "stateMutability": "view",
      "type": "function"
    },
    {
      "inputs": [],
      "name": "want",
      "outputs": [
        {
          "internalType": "address",
          "name": "",
          "type": "address"
        }
      ],
      "stateMutability": "view",
      "type": "function"
    },
    {
      "inputs": [
        {
          "internalType": "uint256",
          "name": "_amount",
          "type": "uint256"
        }
      ],
      "name": "withdraw",
      "outputs": [],
      "stateMutability": "nonpayable",
      "type": "function"
    },
    {
      "inputs": [],
      "name": "withdrawalFee",
      "outputs": [
        {
          "internalType": "uint256",
          "name": "",
          "type": "uint256"
        }
      ],
      "stateMutability": "view",
      "type": "function"
    }
  ],
  "transactionHash": "0x8e4a472638c31d73b03765ca8191097d2aeda3e80303cfbddc4fbfeb06a1fd24",
  "args": [
    "0x01522C42cA43D7BfD34f373d41AD7d90a95E714C",
    "0x83470506ba97dB33Df0EBe01E876C6718C762Df6",
    {
      "keeper": "0x2BB07bd4524789FA45dbBd9Ccba8EaeA6aa7DE76",
      "strategist": "0xd061376868aE2638B72fB451f32D819C4aB07416",
      "unirouter": "0xE3D8bd6Aed4F159bc8000a9cD47CffDb95F96121",
      "vault": "0xad301865992a47Ea78635Cc23c02d758d70630fc",
      "autocompFeeRecipient": "0x002fF8162d4F44457c897B5A77026b2E75235C64",
      "harvester": "0x91bC5FA600e71Fd4c36825DbF095DA1b202567E4"
    },
    [
      "0x00Be915B9dCf56a3CBE739D9B9c202ca692409EC",
      "0x471EcE3750Da237f93B8E339c536989b8978a438"
    ],
    [
      "0x00Be915B9dCf56a3CBE739D9B9c202ca692409EC",
      "0x471EcE3750Da237f93B8E339c536989b8978a438",
      "0x173234922eB27d5138c5e481be9dF5261fAeD450"
    ],
    [
      "0x00Be915B9dCf56a3CBE739D9B9c202ca692409EC",
      "0x471EcE3750Da237f93B8E339c536989b8978a438"
    ],
    [
      "0x471EcE3750Da237f93B8E339c536989b8978a438",
      "0x00Be915B9dCf56a3CBE739D9B9c202ca692409EC"
    ]
  ],
  "solcInputHash": "107e31dd175e09e04bbc1700da303bd5",
  "bytecode": "0x6080604052600a601355606f60148190556200001f60706103e862000e98565b6200002b919062000e98565b6015553480156200003b57600080fd5b506040516200363c3803806200363c8339810160408190526200005e9162000d17565b846200006a3362000578565b6000805460ff60a01b191690558051600180546001600160a01b03199081166001600160a01b0393841617909155602083015160028054831691841691909117815560408401516003805484169185169190911790556060840151600480548416918516919091179055608084015160058054841691851691909117905560a0909301516006805483169184169190911790556009805482168b8416179055600d8054909116918916919091179055845110156200012757600080fd5b836000815181106200014957634e487b7160e01b600052603260045260246000fd5b6020026020010151600860006101000a8154816001600160a01b0302191690836001600160a01b03160217905550836001855162000188919062000e98565b81518110620001a757634e487b7160e01b600052603260045260246000fd5b602090810291909101810151600780546001600160a01b0319166001600160a01b039092169190911790558451620001e691600f919087019062000afc565b50600960009054906101000a90046001600160a01b03166001600160a01b0316630dfe16816040518163ffffffff1660e01b815260040160206040518083038186803b1580156200023657600080fd5b505afa1580156200024b573d6000803e3d6000fd5b505050506040513d601f19601f8201168201806040525081019062000271919062000cfa565b600a80546001600160a01b0319166001600160a01b0392831617905560085484519116908490600090620002b557634e487b7160e01b600052603260045260246000fd5b60200260200101516001600160a01b031614620002d157600080fd5b600a5483516001600160a01b03909116908490620002f29060019062000e98565b815181106200031157634e487b7160e01b600052603260045260246000fd5b60200260200101516001600160a01b0316146200032d57600080fd5b82516200034290601090602086019062000afc565b50600960009054906101000a90046001600160a01b03166001600160a01b031663d21220a76040518163ffffffff1660e01b815260040160206040518083038186803b1580156200039257600080fd5b505afa158015620003a7573d6000803e3d6000fd5b505050506040513d601f19601f82011682018060405250810190620003cd919062000cfa565b600b80546001600160a01b0319166001600160a01b03928316179055600854835191169083906000906200041157634e487b7160e01b600052603260045260246000fd5b60200260200101516001600160a01b0316146200042d57600080fd5b600b5482516001600160a01b039091169083906200044e9060019062000e98565b815181106200046d57634e487b7160e01b600052603260045260246000fd5b60200260200101516001600160a01b0316146200048957600080fd5b81516200049e90601190602085019062000afc565b50600281511015620004af57600080fd5b80600081518110620004d157634e487b7160e01b600052603260045260246000fd5b6020908102919091010151600c80546001600160a01b0319166001600160a01b0392831617905560085482519116908290620005109060019062000e98565b815181106200052f57634e487b7160e01b600052603260045260246000fd5b60200260200101516001600160a01b0316146200054b57600080fd5b80516200056090601290602084019062000afc565b506200056b620005c8565b5050505050505062000f05565b600080546001600160a01b038381166001600160a01b0319831681178455604051919092169283917f8be0079c531659141344cd1fd0a4f28419497f9722a3daafe3b4186f6b6457e09190a35050565b600d54600954620005f5916001600160a01b0391821691166000196200072f602090811b6200138b17901c565b60035460085462000622916001600160a01b0391821691166000196200072f602090811b6200138b17901c565b600354600a546200064e916001600160a01b03918216911660006200072f602090811b6200138b17901c565b600354600a546200067b916001600160a01b0391821691166000196200072f602090811b6200138b17901c565b600354600b54620006a7916001600160a01b03918216911660006200072f602090811b6200138b17901c565b600354600b54620006d4916001600160a01b0391821691166000196200072f602090811b6200138b17901c565b600354600c5462000700916001600160a01b03918216911660006200072f602090811b6200138b17901c565b600354600c546200072d916001600160a01b0391821691166000196200072f602090811b6200138b17901c565b565b801580620007bd5750604051636eb1769f60e11b81523060048201526001600160a01b03838116602483015284169063dd62ed3e9060440160206040518083038186803b1580156200078057600080fd5b505afa15801562000795573d6000803e3d6000fd5b505050506040513d601f19601f82011682018060405250810190620007bb919062000e2c565b155b620008355760405162461bcd60e51b815260206004820152603660248201527f5361666545524332303a20617070726f76652066726f6d206e6f6e2d7a65726f60448201527f20746f206e6f6e2d7a65726f20616c6c6f77616e63650000000000000000000060648201526084015b60405180910390fd5b604080516001600160a01b038416602482015260448082018490528251808303909101815260649091019091526020810180516001600160e01b0390811663095ea7b360e01b179091526200088d9185916200089216565b505050565b6000620008ee826040518060400160405280602081526020017f5361666545524332303a206c6f772d6c6576656c2063616c6c206661696c6564815250856001600160a01b03166200097060201b620014e2179092919060201c565b8051909150156200088d57808060200190518101906200090f919062000e0a565b6200088d5760405162461bcd60e51b815260206004820152602a60248201527f5361666545524332303a204552433230206f7065726174696f6e20646964206e6044820152691bdd081cdd58d8d9595960b21b60648201526084016200082c565b60606200098184846000856200098b565b90505b9392505050565b606082471015620009ee5760405162461bcd60e51b815260206004820152602660248201527f416464726573733a20696e73756666696369656e742062616c616e636520666f6044820152651c8818d85b1b60d21b60648201526084016200082c565b843b62000a3e5760405162461bcd60e51b815260206004820152601d60248201527f416464726573733a2063616c6c20746f206e6f6e2d636f6e747261637400000060448201526064016200082c565b600080866001600160a01b0316858760405162000a5c919062000e45565b60006040518083038185875af1925050503d806000811462000a9b576040519150601f19603f3d011682016040523d82523d6000602084013e62000aa0565b606091505b50909250905062000ab382828662000abe565b979650505050505050565b6060831562000acf57508162000984565b82511562000ae05782518084602001fd5b8160405162461bcd60e51b81526004016200082c919062000e63565b82805482825590600052602060002090810192821562000b54579160200282015b8281111562000b5457825182546001600160a01b0319166001600160a01b0390911617825560209092019160019091019062000b1d565b5062000b6292915062000b66565b5090565b5b8082111562000b62576000815560010162000b67565b80516001600160a01b038116811462000b9557600080fd5b919050565b600082601f83011262000bab578081fd5b815160206001600160401b038083111562000bca5762000bca62000eef565b8260051b604051601f19603f8301168101818110848211171562000bf25762000bf262000eef565b6040528481528381019250868401828801850189101562000c11578687fd5b8692505b8583101562000c3e5762000c298162000b7d565b84529284019260019290920191840162000c15565b50979650505050505050565b600060c0828403121562000c5c578081fd5b60405160c081016001600160401b038111828210171562000c815762000c8162000eef565b60405290508062000c928362000b7d565b815262000ca26020840162000b7d565b602082015262000cb56040840162000b7d565b604082015262000cc86060840162000b7d565b606082015262000cdb6080840162000b7d565b608082015262000cee60a0840162000b7d565b60a08201525092915050565b60006020828403121562000d0c578081fd5b620009848262000b7d565b6000806000806000806000610180888a03121562000d33578283fd5b62000d3e8862000b7d565b965062000d4e6020890162000b7d565b955062000d5f8960408a0162000c4a565b6101008901519095506001600160401b038082111562000d7d578485fd5b62000d8b8b838c0162000b9a565b95506101208a015191508082111562000da2578485fd5b62000db08b838c0162000b9a565b94506101408a015191508082111562000dc7578384fd5b62000dd58b838c0162000b9a565b93506101608a015191508082111562000dec578283fd5b5062000dfb8a828b0162000b9a565b91505092959891949750929550565b60006020828403121562000e1c578081fd5b8151801515811462000984578182fd5b60006020828403121562000e3e578081fd5b5051919050565b6000825162000e5981846020870162000ebc565b9190910192915050565b602081526000825180602084015262000e8481604085016020870162000ebc565b601f01601f19169190910160400192915050565b60008282101562000eb757634e487b7160e01b81526011600452602481fd5b500390565b60005b8381101562000ed957818101518382015260200162000ebf565b8381111562000ee9576000848401525b50505050565b634e487b7160e01b600052604160045260246000fd5b6127278062000f156000396000f3fe608060405234801561001057600080fd5b50600436106103275760003560e01c806380a2e6ac116101b8578063c1a3d44c11610104578063f20eaeb8116100a2578063fbfa77cf1161007c578063fbfa77cf1461061e578063fcec0dfa14610631578063fd63a88714610644578063feaaf04b1461065757600080fd5b8063f20eaeb8146105f0578063f2fde38b14610603578063fb6177871461061657600080fd5b8063d801d946116100de578063d801d946146105c4578063d92f3d73146105cc578063dfbdc437146105df578063f1a392da146105e757600080fd5b8063c1a3d44c146105a1578063c7b9d530146105a9578063d0e30db0146105bc57600080fd5b806390321e1a11610171578063ac1e50251161014b578063ac1e50251461055f578063aced166114610572578063bc063e1a14610585578063be12a9781461058e57600080fd5b806390321e1a1461053a578063a0824cc414610543578063a2f809091461054c57600080fd5b806380a2e6ac146104e55780638456cb59146104f8578063877562b6146105005780638912cb8b146105135780638bc7e8c4146105205780638da5cb5b1461052957600080fd5b80634641257d116102775780635ee167c011610230578063715018a61161020a578063715018a6146104ba578063722713f7146104c2578063748747e6146104ca5780637d38ca65146104dd57600080fd5b80635ee167c014610481578063623d8bd2146104945780636817031b146104a757600080fd5b80634641257d1461042f5780634700d305146104375780634bdaeac11461043f57806354518b1a14610452578063573fef0a1461045b5780635c975abb1461046357600080fd5b80631fe4a686116102e45780632ad5a53f116102be5780632ad5a53f146103f95780632e1a7d4d1461040157806336c6cf21146104145780633f4ba83a1461042757600080fd5b80631fe4a686146103c0578063257ae0de146103d357806326465826146103e657600080fd5b80630e8fbb5a1461032c578063115880861461034157806311b0b42d1461035c57806315de1daa146103875780631f1fcd511461039a5780631fc8bc5d146103ad575b600080fd5b61033f61033a366004612452565b61066a565b005b6103496106e2565b6040519081526020015b60405180910390f35b60075461036f906001600160a01b031681565b6040516001600160a01b039091168152602001610353565b61033f61039536600461236b565b610768565b60095461036f906001600160a01b031681565b600d5461036f906001600160a01b031681565b60025461036f906001600160a01b031681565b60035461036f906001600160a01b031681565b61033f6103f436600461248a565b6107c9565b610349606f81565b61033f61040f36600461248a565b610865565b61036f61042236600461248a565b610aa9565b61033f610ad3565b61033f610b2c565b61033f610b7d565b60055461036f906001600160a01b031681565b61034961271081565b61033f610c2f565b600054600160a01b900460ff165b6040519015158152602001610353565b600a5461036f906001600160a01b031681565b61033f6104a236600461236b565b610c64565b61033f6104b536600461236b565b610cb4565b61033f610d00565b610349610d34565b61033f6104d836600461236b565b610d54565b610349607081565b60065461036f906001600160a01b031681565b61033f610db5565b600b5461036f906001600160a01b031681565b6016546104719060ff1681565b61034960135481565b6000546001600160a01b031661036f565b61034960145481565b61034960155481565b61036f61055a36600461248a565b610e04565b61033f61056d36600461248a565b610e14565b60015461036f906001600160a01b031681565b6103496103e881565b61036f61059c36600461248a565b610e92565b610349610ea2565b61033f6105b736600461236b565b610f1e565b61033f610f88565b61033f61106d565b61033f6105da36600461236b565b6110ac565b610349603281565b610349600e5481565b60085461036f906001600160a01b031681565b61033f61061136600461236b565b6110f8565b61033f611190565b60045461036f906001600160a01b031681565b600c5461036f906001600160a01b031681565b61036f61065236600461248a565b61132f565b61033f61066536600461236b565b61133f565b6000546001600160a01b031633148061068d57506001546001600160a01b031633145b6106b25760405162461bcd60e51b81526004016106a99061258b565b60405180910390fd5b6016805460ff191682151590811790915560ff16156106d8576106d56000610e14565b50565b6106d5600a610e14565b600d546040516370a0823160e01b815230600482015260009182916001600160a01b03909116906370a082319060240160206040518083038186803b15801561072a57600080fd5b505afa15801561073e573d6000803e3d6000fd5b505050506040513d601f19601f8201168201806040525081019061076291906124a2565b92915050565b6000546001600160a01b031633148061078b57506001546001600160a01b031633145b6107a75760405162461bcd60e51b81526004016106a99061258b565b600580546001600160a01b0319166001600160a01b0392909216919091179055565b6000546001600160a01b03163314806107ec57506001546001600160a01b031633145b6108085760405162461bcd60e51b81526004016106a99061258b565b606f8111156108425760405162461bcd60e51b81526004016106a9906020808252600490820152630216361760e41b604082015260600190565b60148190558061085560706103e8612674565b61085f9190612674565b60155550565b6004546001600160a01b0316331461088f5760405162461bcd60e51b81526004016106a990612536565b6009546040516370a0823160e01b81523060048201526000916001600160a01b0316906370a082319060240160206040518083038186803b1580156108d357600080fd5b505afa1580156108e7573d6000803e3d6000fd5b505050506040513d601f19601f8201168201806040525081019061090b91906124a2565b9050818110156109fe57600d546001600160a01b0316632e1a7d4d61093084846114fb565b6040518263ffffffff1660e01b815260040161094e91815260200190565b600060405180830381600087803b15801561096857600080fd5b505af115801561097c573d6000803e3d6000fd5b50506009546040516370a0823160e01b81523060048201526001600160a01b0390911692506370a08231915060240160206040518083038186803b1580156109c357600080fd5b505afa1580156109d7573d6000803e3d6000fd5b505050506040513d601f19601f820116820180604052508101906109fb91906124a2565b90505b81811115610a095750805b6000546001600160a01b0316321480610a2b5750600054600160a01b900460ff165b15610a5157600454600954610a4d916001600160a01b03918216911683611507565b5050565b6000610a74612710610a6e6013548561153790919063ffffffff16565b90611543565b600454909150610aa4906001600160a01b0316610a9184846114fb565b6009546001600160a01b03169190611507565b505050565b60108181548110610ab957600080fd5b6000918252602090912001546001600160a01b0316905081565b6000546001600160a01b0316331480610af657506001546001600160a01b031633145b610b125760405162461bcd60e51b81526004016106a99061258b565b610b1a61154f565b610b226115ec565b610b2a610f88565b565b6005546001600160a01b03163314610b735760405162461bcd60e51b815260206004820152600a60248201526910b430b93b32b9ba32b960b11b60448201526064016106a9565b610b2a60006116e1565b6000546001600160a01b0316331480610ba057506001546001600160a01b031633145b610bbc5760405162461bcd60e51b81526004016106a99061258b565b610bc4610db5565b600d546001600160a01b0316632e1a7d4d610bdd6106e2565b6040518263ffffffff1660e01b8152600401610bfb91815260200190565b600060405180830381600087803b158015610c1557600080fd5b505af1158015610c29573d6000803e3d6000fd5b50505050565b60165460ff1615610b2a576004546001600160a01b03163314610b735760405162461bcd60e51b81526004016106a990612536565b6005546001600160a01b03163314610cab5760405162461bcd60e51b815260206004820152600a60248201526910b430b93b32b9ba32b960b11b60448201526064016106a9565b6106d5816116e1565b6000546001600160a01b03163314610cde5760405162461bcd60e51b81526004016106a990612556565b600480546001600160a01b0319166001600160a01b0392909216919091179055565b6000546001600160a01b03163314610d2a5760405162461bcd60e51b81526004016106a990612556565b610b2a600061195e565b6000610d4f610d416106e2565b610d49610ea2565b906119ae565b905090565b6000546001600160a01b0316331480610d7757506001546001600160a01b031633145b610d935760405162461bcd60e51b81526004016106a99061258b565b600180546001600160a01b0319166001600160a01b0392909216919091179055565b6000546001600160a01b0316331480610dd857506001546001600160a01b031633145b610df45760405162461bcd60e51b81526004016106a99061258b565b610dfc6119ba565b610b2a611a42565b60128181548110610ab957600080fd5b6000546001600160a01b0316331480610e3757506001546001600160a01b031633145b610e535760405162461bcd60e51b81526004016106a99061258b565b6032811115610e8d5760405162461bcd60e51b81526004016106a9906020808252600490820152630216361760e41b604082015260600190565b601355565b600f8181548110610ab957600080fd5b6009546040516370a0823160e01b81523060048201526000916001600160a01b0316906370a082319060240160206040518083038186803b158015610ee657600080fd5b505afa158015610efa573d6000803e3d6000fd5b505050506040513d601f19601f82011682018060405250810190610d4f91906124a2565b6002546001600160a01b03163314610f665760405162461bcd60e51b815260206004820152600b60248201526a085cdd1c985d1959da5cdd60aa1b60448201526064016106a9565b600280546001600160a01b0319166001600160a01b0392909216919091179055565b6009546040516370a0823160e01b81523060048201526000916001600160a01b0316906370a082319060240160206040518083038186803b158015610fcc57600080fd5b505afa158015610fe0573d6000803e3d6000fd5b505050506040513d601f19601f8201168201806040525081019061100491906124a2565b905080156106d557600d5460405163534a7e1d60e11b8152600481018390526001600160a01b039091169063a694fc3a90602401600060405180830381600087803b15801561105257600080fd5b505af1158015611066573d6000803e3d6000fd5b5050505050565b6000546001600160a01b031633148061109057506001546001600160a01b031633145b610b735760405162461bcd60e51b81526004016106a99061258b565b6000546001600160a01b031633146110d65760405162461bcd60e51b81526004016106a990612556565b600380546001600160a01b0319166001600160a01b0392909216919091179055565b6000546001600160a01b031633146111225760405162461bcd60e51b81526004016106a990612556565b6001600160a01b0381166111875760405162461bcd60e51b815260206004820152602660248201527f4f776e61626c653a206e6577206f776e657220697320746865207a65726f206160448201526564647265737360d01b60648201526084016106a9565b6106d58161195e565b6004546001600160a01b031633146111ba5760405162461bcd60e51b81526004016106a990612536565b600d546001600160a01b0316632e1a7d4d6111d36106e2565b6040518263ffffffff1660e01b81526004016111f191815260200190565b600060405180830381600087803b15801561120b57600080fd5b505af115801561121f573d6000803e3d6000fd5b50506009546040516370a0823160e01b8152306004820152600093506001600160a01b0390911691506370a082319060240160206040518083038186803b15801561126957600080fd5b505afa15801561127d573d6000803e3d6000fd5b505050506040513d601f19601f820116820180604052508101906112a191906124a2565b6009546004805460405163a9059cbb60e01b81526001600160a01b03918216928101929092526024820184905292935091169063a9059cbb90604401602060405180830381600087803b1580156112f757600080fd5b505af115801561130b573d6000803e3d6000fd5b505050506040513d601f19601f82011682018060405250810190610a4d919061246e565b60118181548110610ab957600080fd5b6000546001600160a01b031633146113695760405162461bcd60e51b81526004016106a990612556565b600680546001600160a01b0319166001600160a01b0392909216919091179055565b8015806114145750604051636eb1769f60e11b81523060048201526001600160a01b03838116602483015284169063dd62ed3e9060440160206040518083038186803b1580156113da57600080fd5b505afa1580156113ee573d6000803e3d6000fd5b505050506040513d601f19601f8201168201806040525081019061141291906124a2565b155b61147f5760405162461bcd60e51b815260206004820152603660248201527f5361666545524332303a20617070726f76652066726f6d206e6f6e2d7a65726f60448201527520746f206e6f6e2d7a65726f20616c6c6f77616e636560501b60648201526084016106a9565b6040516001600160a01b038316602482015260448101829052610aa490849063095ea7b360e01b906064015b60408051601f198184030181529190526020810180516001600160e01b03166001600160e01b031990931692909217909152611aba565b60606114f18484600085611b8c565b90505b9392505050565b60006114f48284612674565b6040516001600160a01b038316602482015260448101829052610aa490849063a9059cbb60e01b906064016114ab565b60006114f48284612655565b60006114f48284612635565b600054600160a01b900460ff1661159f5760405162461bcd60e51b815260206004820152601460248201527314185d5cd8589b194e881b9bdd081c185d5cd95960621b60448201526064016106a9565b6000805460ff60a01b191690557f5db9ee0a495bf2e6ff9c91a7834c1ba4fdd244a5e8aa4e537bd38aeae4b073aa335b6040516001600160a01b03909116815260200160405180910390a1565b600d5460095461160b916001600160a01b03918216911660001961138b565b60035460085461162a916001600160a01b03918216911660001961138b565b600354600a54611648916001600160a01b039182169116600061138b565b600354600a54611667916001600160a01b03918216911660001961138b565b600354600b54611685916001600160a01b039182169116600061138b565b600354600b546116a4916001600160a01b03918216911660001961138b565b600354600c546116c2916001600160a01b039182169116600061138b565b600354600c54610b2a916001600160a01b03918216911660001961138b565b600054600160a01b900460ff161561172e5760405162461bcd60e51b815260206004820152601060248201526f14185d5cd8589b194e881c185d5cd95960821b60448201526064016106a9565b600d60009054906101000a90046001600160a01b03166001600160a01b0316633d18b9126040518163ffffffff1660e01b8152600401600060405180830381600087803b15801561177e57600080fd5b505af1158015611792573d6000803e3d6000fd5b50506008546040516370a0823160e01b8152306004820152600093506001600160a01b0390911691506370a082319060240160206040518083038186803b1580156117dc57600080fd5b505afa1580156117f0573d6000803e3d6000fd5b505050506040513d601f19601f8201168201806040525081019061181491906124a2565b600c546040516370a0823160e01b81523060048201529192506000916001600160a01b03909116906370a082319060240160206040518083038186803b15801561185d57600080fd5b505afa158015611871573d6000803e3d6000fd5b505050506040513d601f19601f8201168201806040525081019061189591906124a2565b90506000821180156118a75750600081115b15610aa45761191181601280548060200260200160405190810160405280929190818152602001828054801561190657602002820191906000526020600020905b81546001600160a01b031681526001909101906020018083116118e8575b505050505030611cb4565b61191a83611d97565b611922611fe4565b61192a610f88565b42600e5560405133907f577a37fdb49a88d66684922c6f913df5239b4f214b2b97c53ef8e3bbb2034cb590600090a2505050565b600080546001600160a01b038381166001600160a01b0319831681178455604051919092169283917f8be0079c531659141344cd1fd0a4f28419497f9722a3daafe3b4186f6b6457e09190a35050565b60006114f4828461261d565b600054600160a01b900460ff1615611a075760405162461bcd60e51b815260206004820152601060248201526f14185d5cd8589b194e881c185d5cd95960821b60448201526064016106a9565b6000805460ff60a01b1916600160a01b1790557f62e78cea01bee320cd4e420270b5ea74000d11b0c9f74754ebdbfc544b05a2586115cf3390565b600d54600954611a60916001600160a01b039182169116600061138b565b600354600854611a7e916001600160a01b039182169116600061138b565b600354600a54611a9c916001600160a01b039182169116600061138b565b600354600b54610b2a916001600160a01b039182169116600061138b565b6000611b0f826040518060400160405280602081526020017f5361666545524332303a206c6f772d6c6576656c2063616c6c206661696c6564815250856001600160a01b03166114e29092919063ffffffff16565b805190915015610aa45780806020019051810190611b2d919061246e565b610aa45760405162461bcd60e51b815260206004820152602a60248201527f5361666545524332303a204552433230206f7065726174696f6e20646964206e6044820152691bdd081cdd58d8d9595960b21b60648201526084016106a9565b606082471015611bed5760405162461bcd60e51b815260206004820152602660248201527f416464726573733a20696e73756666696369656e742062616c616e636520666f6044820152651c8818d85b1b60d21b60648201526084016106a9565b843b611c3b5760405162461bcd60e51b815260206004820152601d60248201527f416464726573733a2063616c6c20746f206e6f6e2d636f6e747261637400000060448201526064016106a9565b600080866001600160a01b03168587604051611c5791906124e7565b60006040518083038185875af1925050503d8060008114611c94576040519150601f19603f3d011682016040523d82523d6000602084013e611c99565b606091505b5091509150611ca982828661227e565b979650505050505050565b7faa327e5489499adc5f676ea1a378dd62fcf22884ae5855531b1e25c47d956a048360008484611ce6426102586119ae565b604051611cf79594939291906125ad565b60405180910390a16003546001600160a01b03166338ed17398460008585611d21426102586119ae565b6040518663ffffffff1660e01b8152600401611d419594939291906125ad565b600060405180830381600087803b158015611d5b57600080fd5b505af1158015611d6f573d6000803e3d6000fd5b505050506040513d6000823e601f3d908101601f19168201604052610c299190810190612392565b6008546040516370a0823160e01b8152306004820152600091611e28916103e891610a6e91602d916001600160a01b0316906370a082319060240160206040518083038186803b158015611dea57600080fd5b505afa158015611dfe573d6000803e3d6000fd5b505050506040513d601f19601f82011682018060405250810190611e2291906124a2565b90611537565b9050611e8d81600f805480602002602001604051908101604052809291908181526020018280548015611906576020028201919060005260206000209081546001600160a01b031681526001909101906020018083116118e857505050505030611cb4565b6007546040516370a0823160e01b81523060048201526000916001600160a01b0316906370a082319060240160206040518083038186803b158015611ed157600080fd5b505afa158015611ee5573d6000803e3d6000fd5b505050506040513d601f19601f82011682018060405250810190611f0991906124a2565b90506000611f286103e8610a6e6014548561153790919063ffffffff16565b90506001600160a01b03841615611f5557600754611f50906001600160a01b03168583611507565b611f6c565b600754611f6c906001600160a01b03163283611507565b6000611f896103e8610a6e6015548661153790919063ffffffff16565b600654600754919250611fa9916001600160a01b03908116911683611507565b6000611fbc6103e8610a6e866070611537565b600254600754919250611fdc916001600160a01b03908116911683611507565b505050505050565b6008546040516370a0823160e01b8152306004820152600091612067916002916001600160a01b0316906370a082319060240160206040518083038186803b15801561202f57600080fd5b505afa158015612043573d6000803e3d6000fd5b505050506040513d601f19601f82011682018060405250810190610a6e91906124a2565b600854600a549192506001600160a01b039182169116146120e5576120e5816010805480602002602001604051908101604052809291908181526020018280548015611906576020028201919060005260206000209081546001600160a01b031681526001909101906020018083116118e857505050505030611cb4565b600854600b546001600160a01b0390811691161461216057612160816011805480602002602001604051908101604052809291908181526020018280548015611906576020028201919060005260206000209081546001600160a01b031681526001909101906020018083116118e857505050505030611cb4565b600a546040516370a0823160e01b81523060048201526000916001600160a01b0316906370a082319060240160206040518083038186803b1580156121a457600080fd5b505afa1580156121b8573d6000803e3d6000fd5b505050506040513d601f19601f820116820180604052508101906121dc91906124a2565b600b546040516370a0823160e01b81523060048201529192506000916001600160a01b03909116906370a082319060240160206040518083038186803b15801561222557600080fd5b505afa158015612239573d6000803e3d6000fd5b505050506040513d601f19601f8201168201806040525081019061225d91906124a2565b905060008211801561226f5750600081115b15610aa457610aa482826122b7565b6060831561228d5750816114f4565b82511561229d5782518084602001fd5b8160405162461bcd60e51b81526004016106a99190612503565b600354600a54600b5460405162e8e33760e81b81526001600160a01b0392831660048201529082166024820152604481018590526064810184905260016084820181905260a48201523060c48201524260e482015291169063e8e337009061010401606060405180830381600087803b15801561233357600080fd5b505af1158015612347573d6000803e3d6000fd5b505050506040513d601f19601f8201168201806040525081019061106691906124ba565b60006020828403121561237c578081fd5b81356001600160a01b03811681146114f4578182fd5b600060208083850312156123a4578182fd5b825167ffffffffffffffff808211156123bb578384fd5b818501915085601f8301126123ce578384fd5b8151818111156123e0576123e06126cd565b8060051b604051601f19603f83011681018181108582111715612405576124056126cd565b604052828152858101935084860182860187018a1015612423578788fd5b8795505b83861015612445578051855260019590950194938601938601612427565b5098975050505050505050565b600060208284031215612463578081fd5b81356114f4816126e3565b60006020828403121561247f578081fd5b81516114f4816126e3565b60006020828403121561249b578081fd5b5035919050565b6000602082840312156124b3578081fd5b5051919050565b6000806000606084860312156124ce578182fd5b8351925060208401519150604084015190509250925092565b600082516124f981846020870161268b565b9190910192915050565b602081526000825180602084015261252281604085016020870161268b565b601f01601f19169190910160400192915050565b602080825260069082015265085d985d5b1d60d21b604082015260600190565b6020808252818101527f4f776e61626c653a2063616c6c6572206973206e6f7420746865206f776e6572604082015260600190565b60208082526008908201526710b6b0b730b3b2b960c11b604082015260600190565b600060a082018783526020878185015260a0604085015281875180845260c0860191508289019350845b818110156125fc5784516001600160a01b0316835293830193918301916001016125d7565b50506001600160a01b03969096166060850152505050608001529392505050565b60008219821115612630576126306126b7565b500190565b60008261265057634e487b7160e01b81526012600452602481fd5b500490565b600081600019048311821515161561266f5761266f6126b7565b500290565b600082821015612686576126866126b7565b500390565b60005b838110156126a657818101518382015260200161268e565b83811115610c295750506000910152565b634e487b7160e01b600052601160045260246000fd5b634e487b7160e01b600052604160045260246000fd5b80151581146106d557600080fdfea264697066735822122052b36bd76226510e4726f8c7aa564d7cfcec2f57d7330e24dbdc6de70b0c6ec864736f6c63430008040033",
  "devdoc": {
    "events": {
      "_SafeSwap(uint256,uint256,address[],address,uint256)": {
        "details": "Event that is fired each time someone harvests the strat."
      }
    },
    "kind": "dev",
    "methods": {
      "beforeDeposit()": {
        "details": "Function to synchronize balances before new user deposit. Can be overridden in the strategy."
      },
      "owner()": {
        "details": "Returns the address of the current owner."
      },
      "paused()": {
        "details": "Returns true if the contract is paused, and false otherwise."
      },
      "renounceOwnership()": {
        "details": "Leaves the contract without owner. It will not be possible to call `onlyOwner` functions anymore. Can only be called by the current owner. NOTE: Renouncing ownership will leave the contract without an owner, thereby removing any functionality that is only available to the owner."
      },
      "setAutocompFeeRecipient(address)": {
        "details": "Updates autocomp fee recipient.",
        "params": {
          "_autocompFeeRecipient": "new autocomp fee recipient address."
        }
      },
      "setHarvester(address)": {
        "details": "Updates address of the strat harvester.",
        "params": {
          "_harvester": "new harvester address."
        }
      },
      "setKeeper(address)": {
        "details": "Updates address of the strat keeper.",
        "params": {
          "_keeper": "new keeper address."
        }
      },
      "setStrategist(address)": {
        "details": "Updates address where strategist fee earnings will go.",
        "params": {
          "_strategist": "new strategist address."
        }
      },
      "setUnirouter(address)": {
        "details": "Updates router that will be used for swaps.",
        "params": {
          "_unirouter": "new unirouter address."
        }
      },
      "setVault(address)": {
        "details": "Updates parent vault.",
        "params": {
          "_vault": "new vault address."
        }
      },
      "transferOwnership(address)": {
        "details": "Transfers ownership of the contract to a new account (`newOwner`). Can only be called by the current owner."
      }
    },
    "version": 1
  },
  "userdoc": {
    "kind": "user",
    "methods": {},
    "version": 1
  },
  "storageLayout": {
    "storage": [
      {
        "astId": 591,
        "contract": "contracts/ACFI/strategies/ubeswap/StrategyStakingDoubleRewardLP.sol:StrategyStakingDoubleRewardLP",
        "label": "_owner",
        "offset": 0,
        "slot": "0",
        "type": "t_address"
      },
      {
        "astId": 705,
        "contract": "contracts/ACFI/strategies/ubeswap/StrategyStakingDoubleRewardLP.sol:StrategyStakingDoubleRewardLP",
        "label": "_paused",
        "offset": 20,
        "slot": "0",
        "type": "t_bool"
      },
      {
        "astId": 4793,
        "contract": "contracts/ACFI/strategies/ubeswap/StrategyStakingDoubleRewardLP.sol:StrategyStakingDoubleRewardLP",
        "label": "keeper",
        "offset": 0,
        "slot": "1",
        "type": "t_address"
      },
      {
        "astId": 4795,
        "contract": "contracts/ACFI/strategies/ubeswap/StrategyStakingDoubleRewardLP.sol:StrategyStakingDoubleRewardLP",
        "label": "strategist",
        "offset": 0,
        "slot": "2",
        "type": "t_address"
      },
      {
        "astId": 4797,
        "contract": "contracts/ACFI/strategies/ubeswap/StrategyStakingDoubleRewardLP.sol:StrategyStakingDoubleRewardLP",
        "label": "unirouter",
        "offset": 0,
        "slot": "3",
        "type": "t_address"
      },
      {
        "astId": 4799,
        "contract": "contracts/ACFI/strategies/ubeswap/StrategyStakingDoubleRewardLP.sol:StrategyStakingDoubleRewardLP",
        "label": "vault",
        "offset": 0,
        "slot": "4",
        "type": "t_address"
      },
      {
        "astId": 4801,
        "contract": "contracts/ACFI/strategies/ubeswap/StrategyStakingDoubleRewardLP.sol:StrategyStakingDoubleRewardLP",
        "label": "harvester",
        "offset": 0,
        "slot": "5",
        "type": "t_address"
      },
      {
        "astId": 4803,
        "contract": "contracts/ACFI/strategies/ubeswap/StrategyStakingDoubleRewardLP.sol:StrategyStakingDoubleRewardLP",
        "label": "autocompFeeRecipient",
        "offset": 0,
        "slot": "6",
        "type": "t_address"
      },
      {
        "astId": 3913,
        "contract": "contracts/ACFI/strategies/ubeswap/StrategyStakingDoubleRewardLP.sol:StrategyStakingDoubleRewardLP",
        "label": "native",
        "offset": 0,
        "slot": "7",
        "type": "t_address"
      },
      {
        "astId": 3915,
        "contract": "contracts/ACFI/strategies/ubeswap/StrategyStakingDoubleRewardLP.sol:StrategyStakingDoubleRewardLP",
        "label": "output",
        "offset": 0,
        "slot": "8",
        "type": "t_address"
      },
      {
        "astId": 3917,
        "contract": "contracts/ACFI/strategies/ubeswap/StrategyStakingDoubleRewardLP.sol:StrategyStakingDoubleRewardLP",
        "label": "want",
        "offset": 0,
        "slot": "9",
        "type": "t_address"
      },
      {
        "astId": 3919,
        "contract": "contracts/ACFI/strategies/ubeswap/StrategyStakingDoubleRewardLP.sol:StrategyStakingDoubleRewardLP",
        "label": "lpToken0",
        "offset": 0,
        "slot": "10",
        "type": "t_address"
      },
      {
        "astId": 3921,
        "contract": "contracts/ACFI/strategies/ubeswap/StrategyStakingDoubleRewardLP.sol:StrategyStakingDoubleRewardLP",
        "label": "lpToken1",
        "offset": 0,
        "slot": "11",
        "type": "t_address"
      },
      {
        "astId": 3929,
        "contract": "contracts/ACFI/strategies/ubeswap/StrategyStakingDoubleRewardLP.sol:StrategyStakingDoubleRewardLP",
        "label": "output2",
        "offset": 0,
        "slot": "12",
        "type": "t_address"
      },
      {
        "astId": 3931,
        "contract": "contracts/ACFI/strategies/ubeswap/StrategyStakingDoubleRewardLP.sol:StrategyStakingDoubleRewardLP",
        "label": "chef",
        "offset": 0,
        "slot": "13",
        "type": "t_address"
      },
      {
        "astId": 3933,
        "contract": "contracts/ACFI/strategies/ubeswap/StrategyStakingDoubleRewardLP.sol:StrategyStakingDoubleRewardLP",
        "label": "lastHarvest",
        "offset": 0,
        "slot": "14",
        "type": "t_uint256"
      },
      {
        "astId": 3936,
        "contract": "contracts/ACFI/strategies/ubeswap/StrategyStakingDoubleRewardLP.sol:StrategyStakingDoubleRewardLP",
        "label": "outputToNativeRoute",
        "offset": 0,
        "slot": "15",
        "type": "t_array(t_address)dyn_storage"
      },
      {
        "astId": 3939,
        "contract": "contracts/ACFI/strategies/ubeswap/StrategyStakingDoubleRewardLP.sol:StrategyStakingDoubleRewardLP",
        "label": "outputToLp0Route",
        "offset": 0,
        "slot": "16",
        "type": "t_array(t_address)dyn_storage"
      },
      {
        "astId": 3942,
        "contract": "contracts/ACFI/strategies/ubeswap/StrategyStakingDoubleRewardLP.sol:StrategyStakingDoubleRewardLP",
        "label": "outputToLp1Route",
        "offset": 0,
        "slot": "17",
        "type": "t_array(t_address)dyn_storage"
      },
      {
        "astId": 3945,
        "contract": "contracts/ACFI/strategies/ubeswap/StrategyStakingDoubleRewardLP.sol:StrategyStakingDoubleRewardLP",
        "label": "output2ToOutputRoute",
        "offset": 0,
        "slot": "18",
        "type": "t_array(t_address)dyn_storage"
      },
      {
        "astId": 4725,
        "contract": "contracts/ACFI/strategies/ubeswap/StrategyStakingDoubleRewardLP.sol:StrategyStakingDoubleRewardLP",
        "label": "withdrawalFee",
        "offset": 0,
        "slot": "19",
        "type": "t_uint256"
      },
      {
        "astId": 4728,
        "contract": "contracts/ACFI/strategies/ubeswap/StrategyStakingDoubleRewardLP.sol:StrategyStakingDoubleRewardLP",
        "label": "callFee",
        "offset": 0,
        "slot": "20",
        "type": "t_uint256"
      },
      {
        "astId": 4735,
        "contract": "contracts/ACFI/strategies/ubeswap/StrategyStakingDoubleRewardLP.sol:StrategyStakingDoubleRewardLP",
        "label": "autocompFee",
        "offset": 0,
        "slot": "21",
        "type": "t_uint256"
      },
      {
        "astId": 6732,
        "contract": "contracts/ACFI/strategies/ubeswap/StrategyStakingDoubleRewardLP.sol:StrategyStakingDoubleRewardLP",
        "label": "harvestOnDeposit",
        "offset": 0,
        "slot": "22",
        "type": "t_bool"
      }
    ],
    "types": {
      "t_address": {
        "encoding": "inplace",
        "label": "address",
        "numberOfBytes": "20"
      },
      "t_array(t_address)dyn_storage": {
        "base": "t_address",
        "encoding": "dynamic_array",
        "label": "address[]",
        "numberOfBytes": "32"
      },
      "t_bool": {
        "encoding": "inplace",
        "label": "bool",
        "numberOfBytes": "1"
      },
      "t_uint256": {
        "encoding": "inplace",
        "label": "uint256",
        "numberOfBytes": "32"
      }
    }
  }
}